:100000000C942B010C945C010C945C010C945C012D
:100010000C945C010C945C010C945C010C945C01EC
:100020000C945C010C945C010C945C010C945C01DC
:100030000C945C010C945C010C945C010C945C01CC
:100040000C945C010C945C010C945C010C945C01BC
:100050000C945C010C945C010C945C010C94A9035D
:100060000C945C010C941D040C94F3030C945C013F
:100070000C945C010C945C010C945C010C945C018C
:100080000C945C010C945C010C945C010C945C017C
:100090000C945C010C945C010C945C010C945C016C
:1000A0000C945C010C945C010C945C010C945C015C
:1000B0000C945C010C945C010C945C010C945C014C
:1000C0000C945C010C945C010C945C010C945C013C
:1000D0000C945C010C945C010C945C010C945C012C
:1000E0000C945C010C94E3010C94C4010C94F10198
:1000F0000C94B2010C94C8010C9453040C945B0250
:100100000C94EB010C94DD010C94C4020C941103CB
:100110000C9403020C94AD010C947E020C94D30158
:100120000C942E020C94FF010C94D0010C94BE068A
:100130000C948C020C94F9010C94CC010C946A027E
:100140000C94D9010C94F5010C94E70100000A0B02
:1001500002090C0D0E080703040100000000000056
:10016000000000000000000000000000000000008F
:10017000000000000000000012111000000000004C
:10018000000000000000000000000000000000006F
:10019000000000002200250028002B002E00310066
:1001A000340002010000050108010B0100002100DC
:1001B000240027002A002D00300033000101000038
:1001C000040107010A0105050505070508080808D7
:1001D000020202020A0A08080404040401010101DF
:1001E00001010101030303030303030304070707DA
:1001F0000C0C0C0C0C0C0C0C02020202060606067F
:10020000060606060B0B0B0B0B0B0B0B010210204B
:10021000200808102040102040800201020108043C
:1002200002010102040810204080804020100804D0
:100230000201800402018040201008040201080429
:10024000020101020408102040800102040810206D
:1002500040805304BE0611241FBECFEFD1E2DEBFA3
:10026000CDBF00E00CBF22E0ACE3B2E001C01D92C4
:10027000AC3EB207E1F712E0A0E0B2E0E0E0F2E16C
:1002800000E00BBF02C007900D92AC33B107D9F765
:1002900011E0CAE2D1E000E006C021970109802FF9
:1002A000FE010E94C706C932D10780E00807A9F7FE
:1002B0000E94C7040C94EE080C94000090E0FC012E
:1002C000E45FFD4F24918A539E4FFC018491882363
:1002D00099F090E0880F991FFC01E455FE4FA5911D
:1002E000B491FC01EE56FE4F859194918FB7F8942E
:1002F000EC91E22BEC938FBF0895282F30E0F901A9
:10030000E45BFE4F9491F901E45FFD4F44912A5361
:100310003E4FF9012491222309F435C0992311F1AC
:1003200091509231F8F4E92FF0E08827E556FE4F1E
:100330008F4F0C94C706CC01D001AD01C401C80198
:10034000B201D301D901DD01E301E701EB01F101C4
:10035000F501B201F901FF010302809180008F775E
:1003600080938000E22FF0E0EE0FFF1FEE56FE4F6D
:10037000A591B4918FB7F894EC91611148C0409564
:100380004E234C938FBF0895809180008F7DE8CFDE
:1003900080918000877FE4CF84B58F7784BDE2CFE2
:1003A00084B58F7DFBCF8091B0008F778093B000B4
:1003B000D9CF8091B0008F7DF9CF809190008F7759
:1003C00080939000CFCF809190008F7DF9CF809166
:1003D0009000877FF5CF8091A0008F778093A00059
:1003E000C1CF8091A0008F7DF9CF8091A000877F41
:1003F000F5CF809120018F7780932001B3CF80913A
:1004000020018F7DF9CF80912001877FF5CF4E2B82
:10041000B8CF3FB7F8948091410290914202A091E9
:100420004302B091440226B5A89B05C02F3F19F0A6
:100430000196A11DB11D3FBFBA2FA92F982F882764
:10044000BC01CD01620F711D811D911D42E0660F3F
:10045000771F881F991F4A95D1F70895AF92BF92D1
:10046000CF92DF92EF92FF920F931F93CF93DF9380
:100470006C017B018B01040F151FEB015E01AE18AF
:10048000BF08C017D10759F06991D601ED91FC91D1
:100490000190F081E02DC6011995892B79F7C501EE
:1004A000DF91CF911F910F91FF90EF90DF90CF9050
:1004B000BF90AF900895FC01538D448D252F30E0FF
:1004C000842F90E0821B930B541710F0CF96089561
:1004D00001970895FC01918D828D981761F0A28D8E
:1004E000AE0FBF2FB11D5D968C91928D9F5F9F7354
:1004F000928F90E008958FEF9FEF0895FC01918D0A
:10050000828D981731F0828DE80FF11D858D90E076
:1005100008958FEF9FEF0895FC01918D228D892F13
:1005200090E0805C9F4F821B91098F7399270895FB
:1005300085E492E00E948C0221E0892B09F420E0FE
:10054000822F0895FC01A48DA80FB92FB11DA35AC5
:10055000BF4F2C91848D90E001968F739927848FE3
:10056000A689B7892C93A089B1898C918370806406
:100570008C93938D848D981306C00288F389E02DA7
:1005800080818F7D80830895EF92FF920F931F9358
:10059000CF93DF93EC0181E0888F9B8D8C8D981336
:1005A0001AC0E889F989808185FF15C09FB7F89442
:1005B000EE89FF896083E889F9898081837080648E
:1005C00080839FBF81E090E0DF91CF911F910F91D9
:1005D000FF90EF900895F62E0B8D10E00F5F1F4FE8
:1005E0000F731127E02E8C8D8E110CC00FB607FCF7
:1005F000FACFE889F989808185FFF5CFCE010E9485
:10060000A202F1CFEB8DEC0FFD2FF11DE35AFF4F4E
:10061000F0829FB7F8940B8FEA89FB898081806212
:10062000CFCFCF93DF93EC01888D8823B9F0AA89CF
:10063000BB89E889F9898C9185FD03C0808186FD9D
:100640000DC00FB607FCF7CF8C9185FFF2CF8081EC
:1006500085FFEDCFCE010E94A202E9CFDF91CF91BD
:10066000089580E090E0892B29F00E949802811182
:100670000E94000080E090E0892B49F080E090E04B
:10068000892B29F00E94000081110E94000080E067
:1006900090E0892B49F080E090E0892B29F00E94BE
:1006A000000081110E94000080E090E0892B49F059
:1006B00080E090E0892B29F00E94000081110C94C9
:1006C000000008952091E6023091E702232B39F4CF
:1006D00021E0FC018081882361F020E00AC0BC0198
:1006E0008091E2029091E3020E94DE0821E0892BD2
:1006F000A1F7822F0895CF93DF93EC018091E2025E
:100700009091E302009759F02091E4023091E502C4
:100710002C173D0720F081E0DF91CF910895BE01B5
:100720006F5F7F4F0E94F407009789F09093E30278
:100730008093E202D093E502C093E4022091E602A6
:100740003091E702232B39F7FC011082E4CF80E0DF
:10075000E3CF1F920F920FB60F9211242F933F9366
:100760008F939F93AF93BF9380913D0290913E02F0
:10077000A0913F02B091400230913C0223E0230F50
:100780002D3758F50196A11DB11D20933C02809391
:100790003D0290933E02A0933F02B09340028091AD
:1007A000410290914202A0914302B091440201960D
:1007B000A11DB11D8093410290934202A093430278
:1007C000B0934402BF91AF919F918F913F912F9130
:1007D0000F900FBE0F901F90189526E8230F0296DA
:1007E000A11DB11DD2CF1F920F920FB60F921124EF
:1007F0000BB60F922F933F934F935F936F937F931B
:100800008F939F93AF93BF93EF93FF9385E492E011
:100810000E94A202FF91EF91BF91AF919F918F91A2
:100820007F916F915F914F913F912F910F900BBEF0
:100830000F900FBE0F901F9018951F920F920FB63A
:100840000F9211240BB60F922F938F939F93EF93D8
:10085000FF93E0915502F09156028081E0915B0296
:10086000F0915C0282FD1DC0908180915E028F5FDD
:100870008F7320915F02821741F0E0915E02F0E0F9
:10088000EB5BFD4F958F80935E02FF91EF919F91FF
:100890008F912F910F900BBE0F900FBE0F901F9056
:1008A00018958081F2CF109248021092470288EE8C
:1008B00093E0A0E0B0E08093490290934A02A093B5
:1008C0004B02B0934C028AE092E0909346028093F0
:1008D000450285EC90E0909352028093510284ECA3
:1008E00090E0909354028093530280EC90E09093B8
:1008F00056028093550281EC90E0909358028093C9
:10090000570282EC90E090935A028093590286EC51
:1009100090E090935C0280935B0210925E021092D2
:100920005F0210926002109261021092E302109234
:10093000E2021092E5021092E4021092E702109295
:10094000E60290E080E00E947B032091E202309179
:10095000E302811113C02115310519F0C9010E946C
:100960006B071092E3021092E2021092E7021092DB
:10097000E6021092E5021092E40208951092E70256
:100980001092E6026AE172E0C9010C94E708CF9385
:10099000DF931F921F92CDB7DEB7789484B5826043
:1009A00084BD84B5816084BD85B5826085BD85B513
:1009B000816085BD80916E00816080936E00109291
:1009C000810080918100826080938100809181000C
:1009D000816080938100809180008160809380009D
:1009E0008091B10084608093B1008091B0008160FB
:1009F0008093B000809191008260809391008091FB
:100A0000910081608093910080919000816080933B
:100A100090008091A10082608093A1008091A1004C
:100A200081608093A1008091A00081608093A000EC
:100A30008091210182608093210180912101816058
:100A40008093210180912001816080932001809119
:100A50007A00846080937A0080917A00826080932B
:100A60007A0080917A00816080937A0080917A0088
:100A7000806880937A001092C100E0915502F09155
:100A8000560282E08083E0915102F091520210827E
:100A9000E0915302F09154028FEC808310925D023A
:100AA000E0915902F0915A0286E08083E09157026A
:100AB000F0915802808180618083E0915702F0912B
:100AC0005802808188608083E0915702F09158023B
:100AD000808180688083E0915702F0915802808184
:100AE0008F7D808382E00E945E0183E00E945E0130
:100AF00084E00E945E0185E00E945E0186E00E9423
:100B00005E0187E00E945E0188E00E945E0189E04C
:100B10000E945E0160E082E00E947D0160E083E06F
:100B20000E947D0160E084E00E947D0160E085E03C
:100B30000E947D0160E086E00E947D0160E087E028
:100B40000E947D0160E088E00E947D0160E089E014
:100B50000E947D0185E492E00E948C02892B09F4B9
:100B60004BC00E9409024B015C018AE0C82ED12CC7
:100B7000E12CF12C0E940902681979098A099B0964
:100B8000683E734081059105A8F321E0C21AD1089F
:100B9000E108F10888EE880E83E0981EA11CB11CC4
:100BA000C114D104E104F10429F785E492E00E9424
:100BB0006A02833209F189831A820091E602109158
:100BC000E7020F5F1F4FC8010E947B03882311F2C9
:100BD0002091E2023091E3028091E6029091E702D7
:100BE000BE016F5F7F4F820F931F0E94E708109333
:100BF000E7020093E602AECF4091E6025091E70291
:100C000041155105E9F16091E2027091E30285E43A
:100C100092E00E942E0242E050E068E172E085E43A
:100C200092E00E942E028BE192E00E94620360E05B
:100C3000811107C08DE192E00E946203882319F1BF
:100C400061E082E00E947D0190E080E00E947B03F1
:100C50002091E2023091E302811186C02115310515
:100C600019F0C9010E946B071092E3021092E20290
:100C70001092E7021092E6021092E5021092E4024E
:100C80000E94310367CF8FE192E00E94620360E02F
:100C9000811107C081E292E00E946203882319F06B
:100CA00061E083E0CFCF83E292E00E94620360E0E4
:100CB000811107C085E292E00E946203882319F047
:100CC00061E084E0BFCF87E292E00E94620360E0CF
:100CD000811107C089E292E00E946203882319F023
:100CE00061E085E0AFCF8BE292E00E94620360E0BA
:100CF000811107C08DE292E00E946203882319F0FF
:100D000061E086E09FCF8FE292E00E94620360E0A4
:100D1000811107C081E392E00E946203882319F0E9
:100D200061E087E08FCF83E392E00E94620360E09E
:100D3000811107C085E392E00E946203882319F0C5
:100D400061E088E07FCF87E392E00E94620360E089
:100D5000811108C089E392E00E946203882309F4AC
:100D600073CF61E089E06ECF1092E7021092E60245
:100D70006AE172E0C9010E94E70882CF8091E20235
:100D80009091E302009711F00C946B070895EE0F19
:100D9000FF1F881F8BBF0790F691E02D19940F93CA
:100DA0001F93CF93DF938230910510F482E090E09F
:100DB000E091EA02F091EB0230E020E0B0E0A0E048
:100DC000309799F42115310509F44AC0281B390BD5
:100DD00024303105D8F58A819B816115710589F12F
:100DE000FB0193838283FE0111C040815181028106
:100DF000138148175907E0F04817590799F41097DD
:100E000061F012960C93129713961C933296CF01B1
:100E1000DF91CF911F910F9108950093EA021093F3
:100E2000EB02F4CF2115310551F04217530738F08A
:100E3000A901DB019A01BD01DF01F801C1CFEF017A
:100E4000F9CF9093EB028093EA02CDCFFE01E20F3F
:100E5000F31F819391932250310939832883D7CF8F
:100E60002091E8023091E902232B41F42091020203
:100E7000309103023093E9022093E80220910002AE
:100E8000309101022115310541F42DB73EB7409153
:100E9000040250910502241B350BE091E802F09109
:100EA000E902E217F307A0F42E1B3F0B28173907BE
:100EB00078F0AC014E5F5F4F2417350748F04E0FB6
:100EC0005F1F5093E9024093E802819391939FCF73
:100ED000F0E0E0E09CCFCF93DF930097E9F0FC01D6
:100EE000329713821282A091EA02B091EB02ED01D7
:100EF00030E020E01097A1F420813181820F931F10
:100F00002091E8023091E9022817390709F061C001
:100F1000F093E902E093E802DF91CF910895EA01AE
:100F2000CE17DF07E8F54A815B819E014115510527
:100F3000B1F7E901FB83EA8349915991C40FD51FA9
:100F4000EC17FD0761F4808191810296840F951F53
:100F5000E90199838883828193819B838A83F0E06E
:100F6000E0E012968D919C9113970097B9F52D9121
:100F70003C911197CD010296820F931F2091E802B8
:100F80003091E9022817390739F6309751F5109258
:100F9000EB021092EA02B093E902A093E802BCCF00
:100FA000D383C28340815181840F951FC817D9070D
:100FB00061F44E5F5F4F88819981480F591F5183BB
:100FC00040838A819B81938382832115310509F0B7
:100FD000B0CFF093EB02E093EA029ECFFD01DC017B
:100FE000C0CF13821282D7CF4F925F926F927F92BF
:100FF0008F929F92AF92BF92CF92DF92EF92FF9229
:101000000F931F93CF93DF938C01009799F4CB013B
:10101000DF91CF911F910F91FF90EF90DF90CF90D4
:10102000BF90AF909F908F907F906F905F904F9008
:101030000C94CF06FC01E60FF71F9C0122503109EA
:10104000E217F30708F4AEC0D901CD91DC911197F6
:10105000C617D70720F1C530D10578F0CE01049727
:101060008617970750F0C61BD70B2297C193D193D1
:101070006D937C93CF010E946B07C801DF91CF91E4
:101080001F910F91FF90EF90DF90CF90BF90AF90A6
:101090009F908F907F906F905F904F9008955B012D
:1010A000AC1ABD0A4C018C0E9D1EA091EA02B091B3
:1010B000EB02512C412CF12CE12C109731F5809151
:1010C000E8029091E9028815990509F05CC046167E
:1010D000570608F058C080910002909101020097D5
:1010E00041F48DB79EB74091040250910502841BD4
:1010F000950BE817F90708F055C0F093E902E09363
:10110000E802F90171836083B8CF8D919C911197AA
:1011100012966C90129713967C901397A815B905A8
:1011200059F56C0142E0C40ED11CCA14DB0420F155
:10113000AC014A195B09DA011296159780F06282B8
:10114000738251834083D9016D937C93E114F10440
:1011500071F0D7011396FC93EE9312978ECF2296DF
:101160008C0F9D1FF90191838083F301EFCFF093E2
:10117000EB02E093EA0281CF4816590608F42C01ED
:101180007D01D3019ACFCB010E94CF067C0100974D
:1011900049F0AE01B8010E94D508C8010E946B0752
:1011A00087016BCF10E000E068CFFB01DC0102C0DB
:1011B00001900D9241505040D8F70895FB01DC0199
:1011C0008D91019080190110D9F3990B0895FB01BD
:1011D000DC0101900D920020E1F7089511E0CAE2D0
:1011E000D1E000E006C0802FFE010E94C7062196D4
:1011F000011DCB32D10780E00807A9F7F894FFCF93
:101200000000EC02800000000000C4022E025B021D
:1012100011038C026A027E020D0A00410061004245
:10122000006200430063004400640045006500461E
:0C123000006600470067004800680000EE
:00000001FF
